{"abi":[{"type":"constructor","inputs":[{"name":"entranceFee","type":"uint256","internalType":"uint256"},{"name":"interval","type":"uint256","internalType":"uint256"},{"name":"vrfCoordinator","type":"address","internalType":"address"},{"name":"gasLane","type":"bytes32","internalType":"bytes32"},{"name":"subscriptionId","type":"uint256","internalType":"uint256"},{"name":"callbackGasLimit","type":"uint32","internalType":"uint32"}],"stateMutability":"nonpayable"},{"type":"function","name":"acceptOwnership","inputs":[],"outputs":[],"stateMutability":"nonpayable"},{"type":"function","name":"checkUpkeep","inputs":[{"name":"","type":"bytes","internalType":"bytes"}],"outputs":[{"name":"upkeepNeeded","type":"bool","internalType":"bool"},{"name":"","type":"bytes","internalType":"bytes"}],"stateMutability":"view"},{"type":"function","name":"enterRaffle","inputs":[],"outputs":[],"stateMutability":"payable"},{"type":"function","name":"getEntranceFee","inputs":[],"outputs":[{"name":"","type":"uint256","internalType":"uint256"}],"stateMutability":"view"},{"type":"function","name":"getLastTimeStamps","inputs":[],"outputs":[{"name":"","type":"uint256","internalType":"uint256"}],"stateMutability":"view"},{"type":"function","name":"getPlayers","inputs":[{"name":"index","type":"uint256","internalType":"uint256"}],"outputs":[{"name":"","type":"address","internalType":"address"}],"stateMutability":"view"},{"type":"function","name":"getRaffleState","inputs":[],"outputs":[{"name":"","type":"uint8","internalType":"enum Raffle.RaffleState"}],"stateMutability":"view"},{"type":"function","name":"getRecentWinner","inputs":[],"outputs":[{"name":"","type":"address","internalType":"address"}],"stateMutability":"view"},{"type":"function","name":"owner","inputs":[],"outputs":[{"name":"","type":"address","internalType":"address"}],"stateMutability":"view"},{"type":"function","name":"performUpkeep","inputs":[{"name":"","type":"bytes","internalType":"bytes"}],"outputs":[],"stateMutability":"nonpayable"},{"type":"function","name":"rawFulfillRandomWords","inputs":[{"name":"requestId","type":"uint256","internalType":"uint256"},{"name":"randomWords","type":"uint256[]","internalType":"uint256[]"}],"outputs":[],"stateMutability":"nonpayable"},{"type":"function","name":"s_vrfCoordinator","inputs":[],"outputs":[{"name":"","type":"address","internalType":"contract IVRFCoordinatorV2Plus"}],"stateMutability":"view"},{"type":"function","name":"setCoordinator","inputs":[{"name":"_vrfCoordinator","type":"address","internalType":"address"}],"outputs":[],"stateMutability":"nonpayable"},{"type":"function","name":"transferOwnership","inputs":[{"name":"to","type":"address","internalType":"address"}],"outputs":[],"stateMutability":"nonpayable"},{"type":"event","name":"CoordinatorSet","inputs":[{"name":"vrfCoordinator","type":"address","indexed":false,"internalType":"address"}],"anonymous":false},{"type":"event","name":"OwnershipTransferRequested","inputs":[{"name":"from","type":"address","indexed":true,"internalType":"address"},{"name":"to","type":"address","indexed":true,"internalType":"address"}],"anonymous":false},{"type":"event","name":"OwnershipTransferred","inputs":[{"name":"from","type":"address","indexed":true,"internalType":"address"},{"name":"to","type":"address","indexed":true,"internalType":"address"}],"anonymous":false},{"type":"event","name":"RafleEntered","inputs":[{"name":"player","type":"address","indexed":true,"internalType":"address"}],"anonymous":false},{"type":"event","name":"RequestedRaffleWinner","inputs":[{"name":"requestId","type":"uint256","indexed":true,"internalType":"uint256"}],"anonymous":false},{"type":"event","name":"WinnerPicked","inputs":[{"name":"player","type":"address","indexed":true,"internalType":"address"}],"anonymous":false},{"type":"error","name":"OnlyCoordinatorCanFulfill","inputs":[{"name":"have","type":"address","internalType":"address"},{"name":"want","type":"address","internalType":"address"}]},{"type":"error","name":"OnlyOwnerOrCoordinator","inputs":[{"name":"have","type":"address","internalType":"address"},{"name":"owner","type":"address","internalType":"address"},{"name":"coordinator","type":"address","internalType":"address"}]},{"type":"error","name":"Raffle__NotEnoughEthSend","inputs":[]},{"type":"error","name":"Raffle__RaffleNotOpen","inputs":[]},{"type":"error","name":"Raffle__UpkeepNotNeeded","inputs":[{"name":"balance","type":"uint256","internalType":"uint256"},{"name":"playersLength","type":"uint256","internalType":"uint256"},{"name":"raffleSate","type":"uint256","internalType":"uint256"}]},{"type":"error","name":"Raffle__transferFailed","inputs":[]},{"type":"error","name":"ZeroAddress","inputs":[]}],"bytecode":{"object":"0x6101206040523480156200001257600080fd5b5060405162002455380380620024558339818101604052810190620000389190620004a7565b83338060008073ffffffffffffffffffffffffffffffffffffffff168273ffffffffffffffffffffffffffffffffffffffff1603620000ae576040517f08c379a0000000000000000000000000000000000000000000000000000000008152600401620000a590620005a4565b60405180910390fd5b816000806101000a81548173ffffffffffffffffffffffffffffffffffffffff021916908373ffffffffffffffffffffffffffffffffffffffff160217905550600073ffffffffffffffffffffffffffffffffffffffff168173ffffffffffffffffffffffffffffffffffffffff1614620001355762000134816200025760201b60201c565b5b505050600073ffffffffffffffffffffffffffffffffffffffff168173ffffffffffffffffffffffffffffffffffffffff16036200019f576040517fd92e233d00000000000000000000000000000000000000000000000000000000815260040160405180910390fd5b80600260006101000a81548173ffffffffffffffffffffffffffffffffffffffff021916908373ffffffffffffffffffffffffffffffffffffffff160217905550508560808181525050846101008181525050426004819055508260a081815250508160c081815250508063ffffffff1660e08163ffffffff16815250506000600560146101000a81548160ff02191690836001811115620002465762000245620005c6565b5b021790555050505050505062000667565b3373ffffffffffffffffffffffffffffffffffffffff168173ffffffffffffffffffffffffffffffffffffffff1603620002c8576040517f08c379a0000000000000000000000000000000000000000000000000000000008152600401620002bf9062000645565b60405180910390fd5b80600160006101000a81548173ffffffffffffffffffffffffffffffffffffffff021916908373ffffffffffffffffffffffffffffffffffffffff1602179055508073ffffffffffffffffffffffffffffffffffffffff1660008054906101000a900473ffffffffffffffffffffffffffffffffffffffff1673ffffffffffffffffffffffffffffffffffffffff167fed8889f560326eb138920d842192f0eb3dd22b4f139c87a2c57538e05bae127860405160405180910390a350565b600080fd5b6000819050919050565b620003a0816200038b565b8114620003ac57600080fd5b50565b600081519050620003c08162000395565b92915050565b600073ffffffffffffffffffffffffffffffffffffffff82169050919050565b6000620003f382620003c6565b9050919050565b6200040581620003e6565b81146200041157600080fd5b50565b6000815190506200042581620003fa565b92915050565b6000819050919050565b62000440816200042b565b81146200044c57600080fd5b50565b600081519050620004608162000435565b92915050565b600063ffffffff82169050919050565b620004818162000466565b81146200048d57600080fd5b50565b600081519050620004a18162000476565b92915050565b60008060008060008060c08789031215620004c757620004c662000386565b5b6000620004d789828a01620003af565b9650506020620004ea89828a01620003af565b9550506040620004fd89828a0162000414565b94505060606200051089828a016200044f565b93505060806200052389828a01620003af565b92505060a06200053689828a0162000490565b9150509295509295509295565b600082825260208201905092915050565b7f43616e6e6f7420736574206f776e657220746f207a65726f0000000000000000600082015250565b60006200058c60188362000543565b9150620005998262000554565b602082019050919050565b60006020820190508181036000830152620005bf816200057d565b9050919050565b7f4e487b7100000000000000000000000000000000000000000000000000000000600052602160045260246000fd5b7f43616e6e6f74207472616e7366657220746f2073656c66000000000000000000600082015250565b60006200062d60178362000543565b91506200063a82620005f5565b602082019050919050565b6000602082019050818103600083015262000660816200061e565b9050919050565b60805160a05160c05160e05161010051611da2620006b36000396000610858015260006106b2015260006106810152600061065b015260008181610328015261042b0152611da26000f3fe6080604052600436106100dd5760003560e01c80636e04ff0d1161007f5780638ea98117116100595780638ea981171461027c5780639eccacf6146102a5578063ae4596a2146102d0578063f2fde38b146102fb576100dd565b80636e04ff0d146101fc57806379ba50971461023a5780638da5cb5b14610251576100dd565b80632cfcc539116100bb5780632cfcc539146101615780634585e33b1461016b578063460e204914610194578063473f1ddc146101d1576100dd565b806309bc33a7146100e2578063115cbaf51461010d5780631fe543e314610138575b600080fd5b3480156100ee57600080fd5b506100f7610324565b6040516101049190611262565b60405180910390f35b34801561011957600080fd5b5061012261034c565b60405161012f91906112f4565b60405180910390f35b34801561014457600080fd5b5061015f600480360381019061015a91906113b4565b610363565b005b610169610429565b005b34801561017757600080fd5b50610192600480360381019061018d919061146a565b610598565b005b3480156101a057600080fd5b506101bb60048036038101906101b691906114b7565b6107de565b6040516101c89190611525565b60405180910390f35b3480156101dd57600080fd5b506101e6610826565b6040516101f39190611525565b60405180910390f35b34801561020857600080fd5b50610223600480360381019061021e9190611681565b610850565b604051610231929190611764565b60405180910390f35b34801561024657600080fd5b5061024f610938565b005b34801561025d57600080fd5b50610266610acd565b6040516102739190611525565b60405180910390f35b34801561028857600080fd5b506102a3600480360381019061029e91906117c0565b610af6565b005b3480156102b157600080fd5b506102ba610cd7565b6040516102c7919061184c565b60405180910390f35b3480156102dc57600080fd5b506102e5610cfd565b6040516102f29190611262565b60405180910390f35b34801561030757600080fd5b50610322600480360381019061031d91906117c0565b610d07565b005b60007f0000000000000000000000000000000000000000000000000000000000000000905090565b6000600560149054906101000a900460ff16905090565b600260009054906101000a900473ffffffffffffffffffffffffffffffffffffffff1673ffffffffffffffffffffffffffffffffffffffff163373ffffffffffffffffffffffffffffffffffffffff16146104195733600260009054906101000a900473ffffffffffffffffffffffffffffffffffffffff166040517f1cf993f4000000000000000000000000000000000000000000000000000000008152600401610410929190611867565b60405180910390fd5b610424838383610d1b565b505050565b7f0000000000000000000000000000000000000000000000000000000000000000341015610483576040517f692bb4ae00000000000000000000000000000000000000000000000000000000815260040160405180910390fd5b600060018111156104975761049661127d565b5b600560149054906101000a900460ff1660018111156104b9576104b861127d565b5b146104f0576040517fd24a271400000000000000000000000000000000000000000000000000000000815260040160405180910390fd5b6003339080600181540180825580915050600190039060005260206000200160009091909190916101000a81548173ffffffffffffffffffffffffffffffffffffffff021916908373ffffffffffffffffffffffffffffffffffffffff1602179055503373ffffffffffffffffffffffffffffffffffffffff167fb24b828aa9d16f37c15656636c46c3637ed1d809fbb3839e7f3ffe9fbca05d5460405160405180910390a2565b60006105b260405180602001604052806000815250610850565b509050806106215747600380549050600560149054906101000a900460ff1660018111156105e3576105e261127d565b5b6040517f584327aa00000000000000000000000000000000000000000000000000000000815260040161061893929190611890565b60405180910390fd5b6001600560146101000a81548160ff021916908360018111156106475761064661127d565b5b021790555060006040518060c001604052807f000000000000000000000000000000000000000000000000000000000000000081526020017f00000000000000000000000000000000000000000000000000000000000000008152602001600361ffff1681526020017f000000000000000000000000000000000000000000000000000000000000000063ffffffff168152602001600163ffffffff168152602001610703604051806020016040528060001515815250610f4e565b81525090506000600260009054906101000a900473ffffffffffffffffffffffffffffffffffffffff1673ffffffffffffffffffffffffffffffffffffffff16639b1c385e836040518263ffffffff1660e01b815260040161076591906119fe565b6020604051808303816000875af1158015610784573d6000803e3d6000fd5b505050506040513d601f19601f820116820180604052508101906107a89190611a35565b9050807fcd6e45c8998311cab7e9d4385596cac867e20a0587194b954fa3a731c93ce78b60405160405180910390a25050505050565b6000600382815481106107f4576107f3611a62565b5b9060005260206000200160009054906101000a900473ffffffffffffffffffffffffffffffffffffffff169050919050565b6000600560009054906101000a900473ffffffffffffffffffffffffffffffffffffffff16905090565b6000606060007f0000000000000000000000000000000000000000000000000000000000000000600454426108859190611ac0565b10159050600080600181111561089e5761089d61127d565b5b600560149054906101000a900460ff1660018111156108c0576108bf61127d565b5b149050600080471190506000806003805490501190508380156108e05750825b80156108e95750815b80156108f25750805b9550856040518060400160405280600381526020017f30783000000000000000000000000000000000000000000000000000000000008152509550955050505050915091565b600160009054906101000a900473ffffffffffffffffffffffffffffffffffffffff1673ffffffffffffffffffffffffffffffffffffffff163373ffffffffffffffffffffffffffffffffffffffff16146109c8576040517f08c379a00000000000000000000000000000000000000000000000000000000081526004016109bf90611b51565b60405180910390fd5b60008060009054906101000a900473ffffffffffffffffffffffffffffffffffffffff169050336000806101000a81548173ffffffffffffffffffffffffffffffffffffffff021916908373ffffffffffffffffffffffffffffffffffffffff1602179055506000600160006101000a81548173ffffffffffffffffffffffffffffffffffffffff021916908373ffffffffffffffffffffffffffffffffffffffff1602179055503373ffffffffffffffffffffffffffffffffffffffff168173ffffffffffffffffffffffffffffffffffffffff167f8be0079c531659141344cd1fd0a4f28419497f9722a3daafe3b4186f6b6457e060405160405180910390a350565b60008060009054906101000a900473ffffffffffffffffffffffffffffffffffffffff16905090565b610afe610acd565b73ffffffffffffffffffffffffffffffffffffffff163373ffffffffffffffffffffffffffffffffffffffff1614158015610b875750600260009054906101000a900473ffffffffffffffffffffffffffffffffffffffff1673ffffffffffffffffffffffffffffffffffffffff163373ffffffffffffffffffffffffffffffffffffffff1614155b15610bf65733610b95610acd565b600260009054906101000a900473ffffffffffffffffffffffffffffffffffffffff166040517f061db9c1000000000000000000000000000000000000000000000000000000008152600401610bed93929190611b71565b60405180910390fd5b600073ffffffffffffffffffffffffffffffffffffffff168173ffffffffffffffffffffffffffffffffffffffff1603610c5c576040517fd92e233d00000000000000000000000000000000000000000000000000000000815260040160405180910390fd5b80600260006101000a81548173ffffffffffffffffffffffffffffffffffffffff021916908373ffffffffffffffffffffffffffffffffffffffff1602179055507fd1a6a14209a385a964d036e404cb5cfb71f4000cdb03c9366292430787261be681604051610ccc9190611525565b60405180910390a150565b600260009054906101000a900473ffffffffffffffffffffffffffffffffffffffff1681565b6000600454905090565b610d0f610fe6565b610d1881611076565b50565b600060038054905083836000818110610d3757610d36611a62565b5b90506020020135610d489190611bd7565b9050600060038281548110610d6057610d5f611a62565b5b9060005260206000200160009054906101000a900473ffffffffffffffffffffffffffffffffffffffff16905080600560006101000a81548173ffffffffffffffffffffffffffffffffffffffff021916908373ffffffffffffffffffffffffffffffffffffffff1602179055506000600560146101000a81548160ff02191690836001811115610df457610df361127d565b5b0217905550600067ffffffffffffffff811115610e1457610e13611556565b5b604051908082528060200260200182016040528015610e425781602001602082028036833780820191505090505b5060039080519060200190610e589291906111a2565b50426004819055508073ffffffffffffffffffffffffffffffffffffffff167f5b690ec4a06fe979403046eaeea5b3ce38524683c3001f662c8b5a829632f7df60405160405180910390a260008173ffffffffffffffffffffffffffffffffffffffff1647604051610ec990611c39565b60006040518083038185875af1925050503d8060008114610f06576040519150601f19603f3d011682016040523d82523d6000602084013e610f0b565b606091505b5050905080610f46576040517f9594d81300000000000000000000000000000000000000000000000000000000815260040160405180910390fd5b505050505050565b60607f92fd13387c7fe7befbc38d303d6468778fb9731bc4583f17d92989c6fcfdeaaa82604051602401610f829190611c79565b604051602081830303815290604052907bffffffffffffffffffffffffffffffffffffffffffffffffffffffff19166020820180517bffffffffffffffffffffffffffffffffffffffffffffffffffffffff83818316178352505050509050919050565b60008054906101000a900473ffffffffffffffffffffffffffffffffffffffff1673ffffffffffffffffffffffffffffffffffffffff163373ffffffffffffffffffffffffffffffffffffffff1614611074576040517f08c379a000000000000000000000000000000000000000000000000000000000815260040161106b90611ce0565b60405180910390fd5b565b3373ffffffffffffffffffffffffffffffffffffffff168173ffffffffffffffffffffffffffffffffffffffff16036110e4576040517f08c379a00000000000000000000000000000000000000000000000000000000081526004016110db90611d4c565b60405180910390fd5b80600160006101000a81548173ffffffffffffffffffffffffffffffffffffffff021916908373ffffffffffffffffffffffffffffffffffffffff1602179055508073ffffffffffffffffffffffffffffffffffffffff1660008054906101000a900473ffffffffffffffffffffffffffffffffffffffff1673ffffffffffffffffffffffffffffffffffffffff167fed8889f560326eb138920d842192f0eb3dd22b4f139c87a2c57538e05bae127860405160405180910390a350565b82805482825590600052602060002090810192821561121b579160200282015b8281111561121a5782518260006101000a81548173ffffffffffffffffffffffffffffffffffffffff021916908373ffffffffffffffffffffffffffffffffffffffff160217905550916020019190600101906111c2565b5b509050611228919061122c565b5090565b5b8082111561124557600081600090555060010161122d565b5090565b6000819050919050565b61125c81611249565b82525050565b60006020820190506112776000830184611253565b92915050565b7f4e487b7100000000000000000000000000000000000000000000000000000000600052602160045260246000fd5b600281106112bd576112bc61127d565b5b50565b60008190506112ce826112ac565b919050565b60006112de826112c0565b9050919050565b6112ee816112d3565b82525050565b600060208201905061130960008301846112e5565b92915050565b6000604051905090565b600080fd5b600080fd5b61132c81611249565b811461133757600080fd5b50565b60008135905061134981611323565b92915050565b600080fd5b600080fd5b600080fd5b60008083601f8401126113745761137361134f565b5b8235905067ffffffffffffffff81111561139157611390611354565b5b6020830191508360208202830111156113ad576113ac611359565b5b9250929050565b6000806000604084860312156113cd576113cc611319565b5b60006113db8682870161133a565b935050602084013567ffffffffffffffff8111156113fc576113fb61131e565b5b6114088682870161135e565b92509250509250925092565b60008083601f84011261142a5761142961134f565b5b8235905067ffffffffffffffff81111561144757611446611354565b5b60208301915083600182028301111561146357611462611359565b5b9250929050565b6000806020838503121561148157611480611319565b5b600083013567ffffffffffffffff81111561149f5761149e61131e565b5b6114ab85828601611414565b92509250509250929050565b6000602082840312156114cd576114cc611319565b5b60006114db8482850161133a565b91505092915050565b600073ffffffffffffffffffffffffffffffffffffffff82169050919050565b600061150f826114e4565b9050919050565b61151f81611504565b82525050565b600060208201905061153a6000830184611516565b92915050565b600080fd5b6000601f19601f8301169050919050565b7f4e487b7100000000000000000000000000000000000000000000000000000000600052604160045260246000fd5b61158e82611545565b810181811067ffffffffffffffff821117156115ad576115ac611556565b5b80604052505050565b60006115c061130f565b90506115cc8282611585565b919050565b600067ffffffffffffffff8211156115ec576115eb611556565b5b6115f582611545565b9050602081019050919050565b82818337600083830152505050565b600061162461161f846115d1565b6115b6565b9050828152602081018484840111156116405761163f611540565b5b61164b848285611602565b509392505050565b600082601f8301126116685761166761134f565b5b8135611678848260208601611611565b91505092915050565b60006020828403121561169757611696611319565b5b600082013567ffffffffffffffff8111156116b5576116b461131e565b5b6116c184828501611653565b91505092915050565b60008115159050919050565b6116df816116ca565b82525050565b600081519050919050565b600082825260208201905092915050565b60005b8381101561171f578082015181840152602081019050611704565b60008484015250505050565b6000611736826116e5565b61174081856116f0565b9350611750818560208601611701565b61175981611545565b840191505092915050565b600060408201905061177960008301856116d6565b818103602083015261178b818461172b565b90509392505050565b61179d81611504565b81146117a857600080fd5b50565b6000813590506117ba81611794565b92915050565b6000602082840312156117d6576117d5611319565b5b60006117e4848285016117ab565b91505092915050565b6000819050919050565b600061181261180d611808846114e4565b6117ed565b6114e4565b9050919050565b6000611824826117f7565b9050919050565b600061183682611819565b9050919050565b6118468161182b565b82525050565b6000602082019050611861600083018461183d565b92915050565b600060408201905061187c6000830185611516565b6118896020830184611516565b9392505050565b60006060820190506118a56000830186611253565b6118b26020830185611253565b6118bf6040830184611253565b949350505050565b6000819050919050565b6118da816118c7565b82525050565b6118e981611249565b82525050565b600061ffff82169050919050565b611906816118ef565b82525050565b600063ffffffff82169050919050565b6119258161190c565b82525050565b600082825260208201905092915050565b6000611947826116e5565b611951818561192b565b9350611961818560208601611701565b61196a81611545565b840191505092915050565b600060c08301600083015161198d60008601826118d1565b5060208301516119a060208601826118e0565b5060408301516119b360408601826118fd565b5060608301516119c6606086018261191c565b5060808301516119d9608086018261191c565b5060a083015184820360a08601526119f1828261193c565b9150508091505092915050565b60006020820190508181036000830152611a188184611975565b905092915050565b600081519050611a2f81611323565b92915050565b600060208284031215611a4b57611a4a611319565b5b6000611a5984828501611a20565b91505092915050565b7f4e487b7100000000000000000000000000000000000000000000000000000000600052603260045260246000fd5b7f4e487b7100000000000000000000000000000000000000000000000000000000600052601160045260246000fd5b6000611acb82611249565b9150611ad683611249565b9250828203905081811115611aee57611aed611a91565b5b92915050565b600082825260208201905092915050565b7f4d7573742062652070726f706f736564206f776e657200000000000000000000600082015250565b6000611b3b601683611af4565b9150611b4682611b05565b602082019050919050565b60006020820190508181036000830152611b6a81611b2e565b9050919050565b6000606082019050611b866000830186611516565b611b936020830185611516565b611ba06040830184611516565b949350505050565b7f4e487b7100000000000000000000000000000000000000000000000000000000600052601260045260246000fd5b6000611be282611249565b9150611bed83611249565b925082611bfd57611bfc611ba8565b5b828206905092915050565b600081905092915050565b50565b6000611c23600083611c08565b9150611c2e82611c13565b600082019050919050565b6000611c4482611c16565b9150819050919050565b611c57816116ca565b82525050565b602082016000820151611c736000850182611c4e565b50505050565b6000602082019050611c8e6000830184611c5d565b92915050565b7f4f6e6c792063616c6c61626c65206279206f776e657200000000000000000000600082015250565b6000611cca601683611af4565b9150611cd582611c94565b602082019050919050565b60006020820190508181036000830152611cf981611cbd565b9050919050565b7f43616e6e6f74207472616e7366657220746f2073656c66000000000000000000600082015250565b6000611d36601783611af4565b9150611d4182611d00565b602082019050919050565b60006020820190508181036000830152611d6581611d29565b905091905056fea2646970667358221220c5adee3f31ec999fa9dcc52ba42b73c03ee75dac06fa7ec0d184222274ae41b364736f6c63430008130033","linkReferences":{}},"methodIdentifiers":{"acceptOwnership()":"79ba5097","checkUpkeep(bytes)":"6e04ff0d","enterRaffle()":"2cfcc539","getEntranceFee()":"09bc33a7","getLastTimeStamps()":"ae4596a2","getPlayers(uint256)":"460e2049","getRaffleState()":"115cbaf5","getRecentWinner()":"473f1ddc","owner()":"8da5cb5b","performUpkeep(bytes)":"4585e33b","rawFulfillRandomWords(uint256,uint256[])":"1fe543e3","s_vrfCoordinator()":"9eccacf6","setCoordinator(address)":"8ea98117","transferOwnership(address)":"f2fde38b"},"id":44}